{
  "_format": "hh3-artifact-1",
  "contractName": "MiningRigShare",
  "sourceName": "contracts/MiningRigShare.sol",
  "abi": [
    {
      "inputs": [],
      "stateMutability": "nonpayable",
      "type": "constructor"
    },
    {
      "inputs": [
        {
          "internalType": "address",
          "name": "sender",
          "type": "address"
        },
        {
          "internalType": "uint256",
          "name": "balance",
          "type": "uint256"
        },
        {
          "internalType": "uint256",
          "name": "needed",
          "type": "uint256"
        },
        {
          "internalType": "uint256",
          "name": "tokenId",
          "type": "uint256"
        }
      ],
      "name": "ERC1155InsufficientBalance",
      "type": "error"
    },
    {
      "inputs": [
        {
          "internalType": "address",
          "name": "approver",
          "type": "address"
        }
      ],
      "name": "ERC1155InvalidApprover",
      "type": "error"
    },
    {
      "inputs": [
        {
          "internalType": "uint256",
          "name": "idsLength",
          "type": "uint256"
        },
        {
          "internalType": "uint256",
          "name": "valuesLength",
          "type": "uint256"
        }
      ],
      "name": "ERC1155InvalidArrayLength",
      "type": "error"
    },
    {
      "inputs": [
        {
          "internalType": "address",
          "name": "operator",
          "type": "address"
        }
      ],
      "name": "ERC1155InvalidOperator",
      "type": "error"
    },
    {
      "inputs": [
        {
          "internalType": "address",
          "name": "receiver",
          "type": "address"
        }
      ],
      "name": "ERC1155InvalidReceiver",
      "type": "error"
    },
    {
      "inputs": [
        {
          "internalType": "address",
          "name": "sender",
          "type": "address"
        }
      ],
      "name": "ERC1155InvalidSender",
      "type": "error"
    },
    {
      "inputs": [
        {
          "internalType": "address",
          "name": "operator",
          "type": "address"
        },
        {
          "internalType": "address",
          "name": "owner",
          "type": "address"
        }
      ],
      "name": "ERC1155MissingApprovalForAll",
      "type": "error"
    },
    {
      "inputs": [
        {
          "internalType": "address",
          "name": "owner",
          "type": "address"
        }
      ],
      "name": "OwnableInvalidOwner",
      "type": "error"
    },
    {
      "inputs": [
        {
          "internalType": "address",
          "name": "account",
          "type": "address"
        }
      ],
      "name": "OwnableUnauthorizedAccount",
      "type": "error"
    },
    {
      "anonymous": false,
      "inputs": [
        {
          "indexed": true,
          "internalType": "address",
          "name": "account",
          "type": "address"
        },
        {
          "indexed": true,
          "internalType": "address",
          "name": "operator",
          "type": "address"
        },
        {
          "indexed": false,
          "internalType": "bool",
          "name": "approved",
          "type": "bool"
        }
      ],
      "name": "ApprovalForAll",
      "type": "event"
    },
    {
      "anonymous": false,
      "inputs": [
        {
          "indexed": true,
          "internalType": "address",
          "name": "previousOwner",
          "type": "address"
        },
        {
          "indexed": true,
          "internalType": "address",
          "name": "newOwner",
          "type": "address"
        }
      ],
      "name": "OwnershipTransferred",
      "type": "event"
    },
    {
      "anonymous": false,
      "inputs": [
        {
          "indexed": false,
          "internalType": "uint256",
          "name": "totalShares",
          "type": "uint256"
        }
      ],
      "name": "SharesMinted",
      "type": "event"
    },
    {
      "anonymous": false,
      "inputs": [
        {
          "indexed": true,
          "internalType": "address",
          "name": "operator",
          "type": "address"
        },
        {
          "indexed": true,
          "internalType": "address",
          "name": "from",
          "type": "address"
        },
        {
          "indexed": true,
          "internalType": "address",
          "name": "to",
          "type": "address"
        },
        {
          "indexed": false,
          "internalType": "uint256[]",
          "name": "ids",
          "type": "uint256[]"
        },
        {
          "indexed": false,
          "internalType": "uint256[]",
          "name": "values",
          "type": "uint256[]"
        }
      ],
      "name": "TransferBatch",
      "type": "event"
    },
    {
      "anonymous": false,
      "inputs": [
        {
          "indexed": true,
          "internalType": "address",
          "name": "operator",
          "type": "address"
        },
        {
          "indexed": true,
          "internalType": "address",
          "name": "from",
          "type": "address"
        },
        {
          "indexed": true,
          "internalType": "address",
          "name": "to",
          "type": "address"
        },
        {
          "indexed": false,
          "internalType": "uint256",
          "name": "id",
          "type": "uint256"
        },
        {
          "indexed": false,
          "internalType": "uint256",
          "name": "value",
          "type": "uint256"
        }
      ],
      "name": "TransferSingle",
      "type": "event"
    },
    {
      "anonymous": false,
      "inputs": [
        {
          "indexed": false,
          "internalType": "string",
          "name": "value",
          "type": "string"
        },
        {
          "indexed": true,
          "internalType": "uint256",
          "name": "id",
          "type": "uint256"
        }
      ],
      "name": "URI",
      "type": "event"
    },
    {
      "inputs": [],
      "name": "MINTED",
      "outputs": [
        {
          "internalType": "bool",
          "name": "",
          "type": "bool"
        }
      ],
      "stateMutability": "view",
      "type": "function"
    },
    {
      "inputs": [],
      "name": "SHARE_ID",
      "outputs": [
        {
          "internalType": "uint8",
          "name": "",
          "type": "uint8"
        }
      ],
      "stateMutability": "view",
      "type": "function"
    },
    {
      "inputs": [],
      "name": "TOTAL_SHARES",
      "outputs": [
        {
          "internalType": "uint8",
          "name": "",
          "type": "uint8"
        }
      ],
      "stateMutability": "view",
      "type": "function"
    },
    {
      "inputs": [
        {
          "internalType": "address",
          "name": "account",
          "type": "address"
        },
        {
          "internalType": "uint256",
          "name": "id",
          "type": "uint256"
        }
      ],
      "name": "balanceOf",
      "outputs": [
        {
          "internalType": "uint256",
          "name": "",
          "type": "uint256"
        }
      ],
      "stateMutability": "view",
      "type": "function"
    },
    {
      "inputs": [
        {
          "internalType": "address[]",
          "name": "accounts",
          "type": "address[]"
        },
        {
          "internalType": "uint256[]",
          "name": "ids",
          "type": "uint256[]"
        }
      ],
      "name": "balanceOfBatch",
      "outputs": [
        {
          "internalType": "uint256[]",
          "name": "",
          "type": "uint256[]"
        }
      ],
      "stateMutability": "view",
      "type": "function"
    },
    {
      "inputs": [
        {
          "internalType": "address",
          "name": "account",
          "type": "address"
        },
        {
          "internalType": "address",
          "name": "operator",
          "type": "address"
        }
      ],
      "name": "isApprovedForAll",
      "outputs": [
        {
          "internalType": "bool",
          "name": "",
          "type": "bool"
        }
      ],
      "stateMutability": "view",
      "type": "function"
    },
    {
      "inputs": [],
      "name": "mint",
      "outputs": [],
      "stateMutability": "nonpayable",
      "type": "function"
    },
    {
      "inputs": [],
      "name": "owner",
      "outputs": [
        {
          "internalType": "address",
          "name": "",
          "type": "address"
        }
      ],
      "stateMutability": "view",
      "type": "function"
    },
    {
      "inputs": [],
      "name": "renounceOwnership",
      "outputs": [],
      "stateMutability": "nonpayable",
      "type": "function"
    },
    {
      "inputs": [
        {
          "internalType": "address",
          "name": "from",
          "type": "address"
        },
        {
          "internalType": "address",
          "name": "to",
          "type": "address"
        },
        {
          "internalType": "uint256[]",
          "name": "ids",
          "type": "uint256[]"
        },
        {
          "internalType": "uint256[]",
          "name": "values",
          "type": "uint256[]"
        },
        {
          "internalType": "bytes",
          "name": "data",
          "type": "bytes"
        }
      ],
      "name": "safeBatchTransferFrom",
      "outputs": [],
      "stateMutability": "nonpayable",
      "type": "function"
    },
    {
      "inputs": [
        {
          "internalType": "address",
          "name": "from",
          "type": "address"
        },
        {
          "internalType": "address",
          "name": "to",
          "type": "address"
        },
        {
          "internalType": "uint256",
          "name": "id",
          "type": "uint256"
        },
        {
          "internalType": "uint256",
          "name": "value",
          "type": "uint256"
        },
        {
          "internalType": "bytes",
          "name": "data",
          "type": "bytes"
        }
      ],
      "name": "safeTransferFrom",
      "outputs": [],
      "stateMutability": "nonpayable",
      "type": "function"
    },
    {
      "inputs": [
        {
          "internalType": "address",
          "name": "operator",
          "type": "address"
        },
        {
          "internalType": "bool",
          "name": "approved",
          "type": "bool"
        }
      ],
      "name": "setApprovalForAll",
      "outputs": [],
      "stateMutability": "nonpayable",
      "type": "function"
    },
    {
      "inputs": [
        {
          "internalType": "address",
          "name": "miningRigOwnershipAddress",
          "type": "address"
        }
      ],
      "name": "setMiningRigOwnershipAddress",
      "outputs": [],
      "stateMutability": "nonpayable",
      "type": "function"
    },
    {
      "inputs": [
        {
          "internalType": "bytes4",
          "name": "interfaceId",
          "type": "bytes4"
        }
      ],
      "name": "supportsInterface",
      "outputs": [
        {
          "internalType": "bool",
          "name": "",
          "type": "bool"
        }
      ],
      "stateMutability": "view",
      "type": "function"
    },
    {
      "inputs": [
        {
          "internalType": "address",
          "name": "newOwner",
          "type": "address"
        }
      ],
      "name": "transferOwnership",
      "outputs": [],
      "stateMutability": "nonpayable",
      "type": "function"
    },
    {
      "inputs": [
        {
          "internalType": "uint256",
          "name": "",
          "type": "uint256"
        }
      ],
      "name": "uri",
      "outputs": [
        {
          "internalType": "string",
          "name": "",
          "type": "string"
        }
      ],
      "stateMutability": "view",
      "type": "function"
    }
  ],
  "bytecode": "0x60806040526003805462ffffff60a01b191661401960a21b179055348015610025575f5ffd5b5060408051602081019091525f8152339061003f8161007c565b506001600160a01b03811661006d57604051631e4fbdf760e01b81525f600482015260240160405180910390fd5b6100768161008c565b5061022f565b60026100888282610175565b5050565b600380546001600160a01b038381166001600160a01b0319831681179093556040519116919082907f8be0079c531659141344cd1fd0a4f28419497f9722a3daafe3b4186f6b6457e0905f90a35050565b634e487b7160e01b5f52604160045260245ffd5b600181811c9082168061010557607f821691505b60208210810361012357634e487b7160e01b5f52602260045260245ffd5b50919050565b601f82111561017057805f5260205f20601f840160051c8101602085101561014e5750805b601f840160051c820191505b8181101561016d575f815560010161015a565b50505b505050565b81516001600160401b0381111561018e5761018e6100dd565b6101a28161019c84546100f1565b84610129565b6020601f8211600181146101d4575f83156101bd5750848201515b5f19600385901b1c1916600184901b17845561016d565b5f84815260208120601f198516915b8281101561020357878501518255602094850194600190920191016101e3565b508482101561022057868401515f19600387901b60f8161c191681555b50505050600190811b01905550565b6114f08061023c5f395ff3fe608060405234801561000f575f5ffd5b50600436106100fa575f3560e01c80638427a62811610093578063e985e9c511610063578063e985e9c514610227578063f242432a1461023a578063f2fde38b1461024d578063f4c0279b14610260575f5ffd5b80638427a628146101c057806385e3f997146101d35780638da5cb5b146101f9578063a22cb46514610214575f5ffd5b80632eb2c2d6116100ce5780632eb2c2d6146101715780633e9c7f69146101845780634e1273f414610198578063715018a6146101b8575f5ffd5b8062fdd58e146100fe57806301ffc9a7146101245780630e89341c146101475780631249c58b14610167575b5f5ffd5b61011161010c366004610edd565b610274565b6040519081526020015b60405180910390f35b610137610132366004610f1a565b61029b565b604051901515815260200161011b565b61015a610155366004610f3c565b6102ea565b60405161011b9190610f81565b61016f61037c565b005b61016f61017f3660046110d1565b6104db565b60035461013790600160a81b900460ff1681565b6101ab6101a6366004611180565b610542565b60405161011b919061127d565b61016f61060d565b61016f6101ce36600461128f565b610620565b6003546101e790600160a01b900460ff1681565b60405160ff909116815260200161011b565b6003546040516001600160a01b03909116815260200161011b565b61016f6102223660046112a8565b61069b565b6101376102353660046112e1565b6106aa565b61016f610248366004611312565b6106d7565b61016f61025b36600461128f565b610765565b6003546101e790600160b01b900460ff1681565b5f818152602081815260408083206001600160a01b03861684529091529020545b92915050565b5f6001600160e01b03198216636cdb3d1360e11b14806102cb57506001600160e01b031982166303a24d0760e21b145b8061029557506301ffc9a760e01b6001600160e01b0319831614610295565b6060600280546102f990611366565b80601f016020809104026020016040519081016040528092919081815260200182805461032590611366565b80156103705780601f1061034757610100808354040283529160200191610370565b820191905f5260205f20905b81548152906001019060200180831161035357829003601f168201915b50505050509050919050565b600354600160a81b900460ff16156103d35760405162461bcd60e51b815260206004820152601560248201527414da185c995cc8185b1c9958591e481b5a5b9d1959605a1b60448201526064015b60405180910390fd5b6004546001600160a01b031633146104465760405162461bcd60e51b815260206004820152603060248201527f4f6e6c79206d696e696e675269674f776e657273686970436f6e74726163742060448201526f36b4b73a103a3432903a37b5b2b7399760811b60648201526084016103ca565b6003805460ff60a81b1916600160a81b17905561049961046e6003546001600160a01b031690565b60035460408051602081019091525f815260ff600160b01b8304811692600160a01b900416906107a2565b600354604051600160a01b90910460ff1681527f10519af4935496a4242a9d74ad1e3fed90bd4570525cf957a465cf8fc9bb6dcd9060200160405180910390a1565b336001600160a01b03861681148015906104fc57506104fa86826106aa565b155b1561052d5760405163711bec9160e11b81526001600160a01b038083166004830152871660248201526044016103ca565b61053a86868686866107fd565b505050505050565b606081518351146105735781518351604051635b05999160e01b8152600481019290925260248201526044016103ca565b5f835167ffffffffffffffff81111561058e5761058e610f93565b6040519080825280602002602001820160405280156105b7578160200160208202803683370190505b5090505f5b8451811015610605576020808202860101516105e090602080840287010151610274565b8282815181106105f2576105f261139e565b60209081029190910101526001016105bc565b509392505050565b61061561085b565b61061e5f610888565b565b6004546001600160a01b0316156106795760405162461bcd60e51b815260206004820152601e60248201527f4f776e65727368697020636f6e747261637420616c726561647920736574000060448201526064016103ca565b600480546001600160a01b0319166001600160a01b0392909216919091179055565b6106a63383836108d9565b5050565b6001600160a01b039182165f90815260016020908152604080832093909416825291909152205460ff1690565b6003546001600160a01b03166001600160a01b0316856001600160a01b0316036107515761070585336106aa565b6107515760405162461bcd60e51b815260206004820181905260248201527f4f776e6572207472616e7366657273207265717569726520617070726f76616c60448201526064016103ca565b61075e858585858561096d565b5050505050565b61076d61085b565b6001600160a01b03811661079657604051631e4fbdf760e01b81525f60048201526024016103ca565b61079f81610888565b50565b6001600160a01b0384166107cb57604051632bfa23e760e11b81525f60048201526024016103ca565b6040805160018082526020820186905281830190815260608201859052608082019092529061053a5f878484876109cc565b6001600160a01b03841661082657604051632bfa23e760e11b81525f60048201526024016103ca565b6001600160a01b03851661084e57604051626a0d4560e21b81525f60048201526024016103ca565b61075e85858585856109cc565b6003546001600160a01b0316331461061e5760405163118cdaa760e01b81523360048201526024016103ca565b600380546001600160a01b038381166001600160a01b0319831681179093556040519116919082907f8be0079c531659141344cd1fd0a4f28419497f9722a3daafe3b4186f6b6457e0905f90a35050565b6001600160a01b0382166109015760405162ced3e160e81b81525f60048201526024016103ca565b6001600160a01b038381165f81815260016020908152604080832094871680845294825291829020805460ff191686151590811790915591519182527f17307eab39ab6107e8899845ad3d59bd9653f200f220920489ca2b5937696c31910160405180910390a3505050565b336001600160a01b038616811480159061098e575061098c86826106aa565b155b156109bf5760405163711bec9160e11b81526001600160a01b038083166004830152871660248201526044016103ca565b61053a8686868686610a1f565b6109d885858585610aab565b6001600160a01b0384161561075e5782513390600103610a115760208481015190840151610a0a838989858589610cba565b505061053a565b61053a818787878787610ddb565b6001600160a01b038416610a4857604051632bfa23e760e11b81525f60048201526024016103ca565b6001600160a01b038516610a7057604051626a0d4560e21b81525f60048201526024016103ca565b60408051600180825260208201869052818301908152606082018590526080820190925290610aa287878484876109cc565b50505050505050565b8051825114610ada5781518151604051635b05999160e01b8152600481019290925260248201526044016103ca565b335f5b8351811015610bdc576020818102858101820151908501909101516001600160a01b03881615610b8e575f828152602081815260408083206001600160a01b038c16845290915290205481811015610b68576040516303dee4c560e01b81526001600160a01b038a1660048201526024810182905260448101839052606481018490526084016103ca565b5f838152602081815260408083206001600160a01b038d16845290915290209082900390555b6001600160a01b03871615610bd2575f828152602081815260408083206001600160a01b038b16845290915281208054839290610bcc9084906113b2565b90915550505b5050600101610add565b508251600103610c5c5760208301515f906020840151909150856001600160a01b0316876001600160a01b0316846001600160a01b03167fc3d58168c5ae7397731d063d5bbf3d657854427343f4c083240f7aacaa2d0f628585604051610c4d929190918252602082015260400190565b60405180910390a4505061075e565b836001600160a01b0316856001600160a01b0316826001600160a01b03167f4a39dc06d4c0dbc64b70af90fd698a233a518aa5d07e595d983b8c0526c8f7fb8686604051610cab9291906113d1565b60405180910390a45050505050565b6001600160a01b0384163b1561053a5760405163f23a6e6160e01b81526001600160a01b0385169063f23a6e6190610cfe90899089908890889088906004016113fe565b6020604051808303815f875af1925050508015610d38575060408051601f3d908101601f19168201909252610d3591810190611442565b60015b610d9f573d808015610d65576040519150601f19603f3d011682016040523d82523d5f602084013e610d6a565b606091505b5080515f03610d9757604051632bfa23e760e11b81526001600160a01b03861660048201526024016103ca565b805160208201fd5b6001600160e01b0319811663f23a6e6160e01b14610aa257604051632bfa23e760e11b81526001600160a01b03861660048201526024016103ca565b6001600160a01b0384163b1561053a5760405163bc197c8160e01b81526001600160a01b0385169063bc197c8190610e1f908990899088908890889060040161145d565b6020604051808303815f875af1925050508015610e59575060408051601f3d908101601f19168201909252610e5691810190611442565b60015b610e86573d808015610d65576040519150601f19603f3d011682016040523d82523d5f602084013e610d6a565b6001600160e01b0319811663bc197c8160e01b14610aa257604051632bfa23e760e11b81526001600160a01b03861660048201526024016103ca565b80356001600160a01b0381168114610ed8575f5ffd5b919050565b5f5f60408385031215610eee575f5ffd5b610ef783610ec2565b946020939093013593505050565b6001600160e01b03198116811461079f575f5ffd5b5f60208284031215610f2a575f5ffd5b8135610f3581610f05565b9392505050565b5f60208284031215610f4c575f5ffd5b5035919050565b5f81518084528060208401602086015e5f602082860101526020601f19601f83011685010191505092915050565b602081525f610f356020830184610f53565b634e487b7160e01b5f52604160045260245ffd5b604051601f8201601f1916810167ffffffffffffffff81118282101715610fd057610fd0610f93565b604052919050565b5f67ffffffffffffffff821115610ff157610ff1610f93565b5060051b60200190565b5f82601f83011261100a575f5ffd5b813561101d61101882610fd8565b610fa7565b8082825260208201915060208360051b86010192508583111561103e575f5ffd5b602085015b8381101561105b578035835260209283019201611043565b5095945050505050565b5f82601f830112611074575f5ffd5b813567ffffffffffffffff81111561108e5761108e610f93565b6110a1601f8201601f1916602001610fa7565b8181528460208386010111156110b5575f5ffd5b816020850160208301375f918101602001919091529392505050565b5f5f5f5f5f60a086880312156110e5575f5ffd5b6110ee86610ec2565b94506110fc60208701610ec2565b9350604086013567ffffffffffffffff811115611117575f5ffd5b61112388828901610ffb565b935050606086013567ffffffffffffffff81111561113f575f5ffd5b61114b88828901610ffb565b925050608086013567ffffffffffffffff811115611167575f5ffd5b61117388828901611065565b9150509295509295909350565b5f5f60408385031215611191575f5ffd5b823567ffffffffffffffff8111156111a7575f5ffd5b8301601f810185136111b7575f5ffd5b80356111c561101882610fd8565b8082825260208201915060208360051b8501019250878311156111e6575f5ffd5b6020840193505b8284101561120f576111fe84610ec2565b8252602093840193909101906111ed565b9450505050602083013567ffffffffffffffff81111561122d575f5ffd5b61123985828601610ffb565b9150509250929050565b5f8151808452602084019350602083015f5b82811015611273578151865260209586019590910190600101611255565b5093949350505050565b602081525f610f356020830184611243565b5f6020828403121561129f575f5ffd5b610f3582610ec2565b5f5f604083850312156112b9575f5ffd5b6112c283610ec2565b9150602083013580151581146112d6575f5ffd5b809150509250929050565b5f5f604083850312156112f2575f5ffd5b6112fb83610ec2565b915061130960208401610ec2565b90509250929050565b5f5f5f5f5f60a08688031215611326575f5ffd5b61132f86610ec2565b945061133d60208701610ec2565b93506040860135925060608601359150608086013567ffffffffffffffff811115611167575f5ffd5b600181811c9082168061137a57607f821691505b60208210810361139857634e487b7160e01b5f52602260045260245ffd5b50919050565b634e487b7160e01b5f52603260045260245ffd5b8082018082111561029557634e487b7160e01b5f52601160045260245ffd5b604081525f6113e36040830185611243565b82810360208401526113f58185611243565b95945050505050565b6001600160a01b03868116825285166020820152604081018490526060810183905260a0608082018190525f9061143790830184610f53565b979650505050505050565b5f60208284031215611452575f5ffd5b8151610f3581610f05565b6001600160a01b0386811682528516602082015260a0604082018190525f9061148890830186611243565b828103606084015261149a8186611243565b905082810360808401526114ae8185610f53565b9897505050505050505056fea264697066735822122055edaeb09f1b99095e347988e88db9e7ba4359be850a0c6a9bf36ea8bdcd06aa64736f6c634300081c0033",
  "linkReferences": {},
  "deployedLinkReferences": {},
  "immutableReferences": {},
  "inputSourceName": "project/contracts/MiningRigShare.sol",
  "buildInfoId": "solc-0_8_28-c4cc38501721e01a50368738067e8d92cc3c50fa"
}